{"abi":[{"type":"constructor","inputs":[{"name":"_factRegistry","type":"address","internalType":"address"},{"name":"_requestProgramHash","type":"bytes32","internalType":"bytes32"},{"name":"_withdrawalProgramHash","type":"bytes32","internalType":"bytes32"}],"stateMutability":"nonpayable"},{"type":"function","name":"assertValidRequest","inputs":[{"name":"inputs","type":"tuple","internalType":"struct Types.RequestPublicInputs","components":[{"name":"statementType","type":"uint8","internalType":"uint8"},{"name":"protocolVersion","type":"uint16","internalType":"uint16"},{"name":"chainId","type":"uint64","internalType":"uint64"},{"name":"contractAddress","type":"address","internalType":"address"},{"name":"activeRoot","type":"uint256","internalType":"uint256"},{"name":"stateSigEpoch","type":"uint32","internalType":"uint32"},{"name":"stateSigRoot","type":"uint256","internalType":"uint256"},{"name":"requestNullifier","type":"uint256","internalType":"uint256"},{"name":"anonCommitmentX","type":"uint256","internalType":"uint256"},{"name":"anonCommitmentY","type":"uint256","internalType":"uint256"},{"name":"expiryTs","type":"uint64","internalType":"uint64"},{"name":"solvencyBound","type":"uint128","internalType":"uint128"}]},{"name":"","type":"bytes","internalType":"bytes"}],"outputs":[],"stateMutability":"view"},{"type":"function","name":"assertValidWithdrawal","inputs":[{"name":"inputs","type":"tuple","internalType":"struct Types.WithdrawalPublicInputs","components":[{"name":"statementType","type":"uint8","internalType":"uint8"},{"name":"protocolVersion","type":"uint16","internalType":"uint16"},{"name":"chainId","type":"uint64","internalType":"uint64"},{"name":"contractAddress","type":"address","internalType":"address"},{"name":"activeRoot","type":"uint256","internalType":"uint256"},{"name":"noteId","type":"uint32","internalType":"uint32"},{"name":"finalBalance","type":"uint128","internalType":"uint128"},{"name":"destination","type":"address","internalType":"address"},{"name":"withdrawalNullifier","type":"uint256","internalType":"uint256"},{"name":"isGenesis","type":"bool","internalType":"bool"},{"name":"hasClearance","type":"bool","internalType":"bool"},{"name":"stateSigEpoch","type":"uint32","internalType":"uint32"},{"name":"stateSigRoot","type":"uint256","internalType":"uint256"},{"name":"clearSigEpoch","type":"uint32","internalType":"uint32"},{"name":"clearSigRoot","type":"uint256","internalType":"uint256"}]},{"name":"","type":"bytes","internalType":"bytes"}],"outputs":[],"stateMutability":"view"},{"type":"function","name":"factRegistry","inputs":[],"outputs":[{"name":"","type":"address","internalType":"contract IFactRegistry"}],"stateMutability":"view"},{"type":"function","name":"requestProgramHash","inputs":[],"outputs":[{"name":"","type":"bytes32","internalType":"bytes32"}],"stateMutability":"view"},{"type":"function","name":"withdrawalProgramHash","inputs":[],"outputs":[{"name":"","type":"bytes32","internalType":"bytes32"}],"stateMutability":"view"},{"type":"error","name":"InvalidProof","inputs":[]},{"type":"error","name":"InvalidStatementType","inputs":[]}],"bytecode":{"object":"0x60e0346100a557601f61076938819003918201601f19168301916001600160401b038311848410176100a9578084926060946040528339810103126100a55780516001600160a01b03811691908290036100a557604060208201519101519160805260a05260c0526040516106ab90816100be823960805181818160680152610272015260a05181818161021d0152610575015260c051818181610321015261052b0152f35b5f80fd5b634e487b7160e01b5f52604160045260245ffdfe6080806040526004361015610012575f80fd5b5f3560e01c9081631b418177146105605750806378318cc51461034457806380718aae1461030a578063ecf6b8131461009b5763ee3015b814610053575f80fd5b34610097575f366003190112610097576040517f00000000000000000000000000000000000000000000000000000000000000006001600160a01b03168152602090f35b5f80fd5b346100975736600319016101a081126100975761018013610097576101843567ffffffffffffffff8111610097576100d7903690600401610598565b5050600160ff6100e56105c6565b16036102fb576100f36105c6565b6100fb610624565b610103610635565b61010b61064c565b610113610662565b610144359167ffffffffffffffff831683036100975761016435936001600160801b03851685036100975760405160f89790971b6001600160f81b0319166020880190815260f09690961b6001600160f01b031916602188015260c090811b6001600160c01b0319908116602389015260609290921b6bffffffffffffffffffffffff1916602b880152608435603f88015260e09290921b6001600160e01b031916605f87015260c435606387015260e43560838701526101043560a38701526101243560c387015291901b1660e384015260801b6fffffffffffffffffffffffffffffffff191660eb83015260db82529061021060fb826105d6565b51902060405160208101917f000000000000000000000000000000000000000000000000000000000000000083526040820152604081526102526060826105d6565b519020604051636a93856760e01b815260048101919091526020816024817f00000000000000000000000000000000000000000000000000000000000000006001600160a01b03165afa9081156102f0575f916102c1575b50156102b257005b6309bde33960e01b5f5260045ffd5b6102e3915060203d6020116102e9575b6102db81836105d6565b81019061060c565b816102aa565b503d6102d1565b6040513d5f823e3d90fd5b63128375ab60e11b5f5260045ffd5b34610097575f3660031901126100975760206040517f00000000000000000000000000000000000000000000000000000000000000008152f35b346100975736600319016102008112610097576101e013610097576101e43567ffffffffffffffff811161009757610380903690600401610598565b5050600260ff61038e6105c6565b16036102fb5761039c6105c6565b6103a4610624565b6103ac610635565b6103b461064c565b6103bc610662565b60c4356001600160801b03811681036100975760e4356001600160a01b03811681036100975761012435918215159283810361009757506101443593841515948581036100975750610164359563ffffffff87168703610097576101a4359763ffffffff89168903610097576040519960208b019b60ff60f81b9060f81b168c5261ffff60f01b9060f01b1660218b015267ffffffffffffffff60c01b9060c01b1660238a01526bffffffffffffffffffffffff199060601b16602b890152608435603f89015263ffffffff60e01b9060e01b16605f8801526001600160801b03199060801b1660638701526bffffffffffffffffffffffff199060601b16607386015261010435608786015260f81b60a785015260f81b60a884015263ffffffff60e01b9060e01b1660a98301526101843560ad83015263ffffffff60e01b9060e01b1660cd8201526101c43560d182015260d1815261051e60f1826105d6565b51902060405160208101917f000000000000000000000000000000000000000000000000000000000000000083526040820152604081526102526060826105d6565b34610097575f366003190112610097576020907f00000000000000000000000000000000000000000000000000000000000000008152f35b9181601f840112156100975782359167ffffffffffffffff8311610097576020838186019501011161009757565b60043560ff811681036100975790565b90601f8019910116810190811067ffffffffffffffff8211176105f857604052565b634e487b7160e01b5f52604160045260245ffd5b90816020910312610097575180151581036100975790565b60243561ffff811681036100975790565b60443567ffffffffffffffff811681036100975790565b6064356001600160a01b03811681036100975790565b60a43563ffffffff81168103610097579056fea2646970667358221220f900f1fe2f40a0da05b3a7a7dc2388e4344a6fcd7619dd040961483e1d5e166564736f6c634300081c0033","linkReferences":{}},"methodIdentifiers":{"assertValidRequest((uint8,uint16,uint64,address,uint256,uint32,uint256,uint256,uint256,uint256,uint64,uint128),bytes)":"ecf6b813","assertValidWithdrawal((uint8,uint16,uint64,address,uint256,uint32,uint128,address,uint256,bool,bool,uint32,uint256,uint32,uint256),bytes)":"78318cc5","factRegistry()":"ee3015b8","requestProgramHash()":"1b418177","withdrawalProgramHash()":"80718aae"},"id":11}