{"abi":[{"type":"constructor","inputs":[],"stateMutability":"nonpayable"},{"type":"function","name":"acceptAll","inputs":[],"outputs":[{"name":"","type":"bool","internalType":"bool"}],"stateMutability":"view"},{"type":"function","name":"admin","inputs":[],"outputs":[{"name":"","type":"address","internalType":"address"}],"stateMutability":"view"},{"type":"function","name":"assertValidRequest","inputs":[{"name":"","type":"tuple","internalType":"struct Types.RequestPublicInputs","components":[{"name":"statementType","type":"uint8","internalType":"uint8"},{"name":"protocolVersion","type":"uint16","internalType":"uint16"},{"name":"chainId","type":"uint64","internalType":"uint64"},{"name":"contractAddress","type":"address","internalType":"address"},{"name":"activeRoot","type":"uint256","internalType":"uint256"},{"name":"stateSigEpoch","type":"uint32","internalType":"uint32"},{"name":"stateSigRoot","type":"uint256","internalType":"uint256"},{"name":"requestNullifier","type":"uint256","internalType":"uint256"},{"name":"anonCommitmentX","type":"uint256","internalType":"uint256"},{"name":"anonCommitmentY","type":"uint256","internalType":"uint256"},{"name":"expiryTs","type":"uint64","internalType":"uint64"},{"name":"solvencyBound","type":"uint128","internalType":"uint128"}]},{"name":"proofEnvelope","type":"bytes","internalType":"bytes"}],"outputs":[],"stateMutability":"view"},{"type":"function","name":"assertValidWithdrawal","inputs":[{"name":"","type":"tuple","internalType":"struct Types.WithdrawalPublicInputs","components":[{"name":"statementType","type":"uint8","internalType":"uint8"},{"name":"protocolVersion","type":"uint16","internalType":"uint16"},{"name":"chainId","type":"uint64","internalType":"uint64"},{"name":"contractAddress","type":"address","internalType":"address"},{"name":"activeRoot","type":"uint256","internalType":"uint256"},{"name":"noteId","type":"uint32","internalType":"uint32"},{"name":"finalBalance","type":"uint128","internalType":"uint128"},{"name":"destination","type":"address","internalType":"address"},{"name":"withdrawalNullifier","type":"uint256","internalType":"uint256"},{"name":"isGenesis","type":"bool","internalType":"bool"},{"name":"hasClearance","type":"bool","internalType":"bool"},{"name":"stateSigEpoch","type":"uint32","internalType":"uint32"},{"name":"stateSigRoot","type":"uint256","internalType":"uint256"},{"name":"clearSigEpoch","type":"uint32","internalType":"uint32"},{"name":"clearSigRoot","type":"uint256","internalType":"uint256"}]},{"name":"proofEnvelope","type":"bytes","internalType":"bytes"}],"outputs":[],"stateMutability":"view"},{"type":"function","name":"registerProofHash","inputs":[{"name":"proofHash","type":"bytes32","internalType":"bytes32"}],"outputs":[],"stateMutability":"nonpayable"},{"type":"function","name":"removeProofHash","inputs":[{"name":"proofHash","type":"bytes32","internalType":"bytes32"}],"outputs":[],"stateMutability":"nonpayable"},{"type":"function","name":"setAcceptAll","inputs":[{"name":"_acceptAll","type":"bool","internalType":"bool"}],"outputs":[],"stateMutability":"nonpayable"},{"type":"function","name":"validProofHashes","inputs":[{"name":"","type":"bytes32","internalType":"bytes32"}],"outputs":[{"name":"","type":"bool","internalType":"bool"}],"stateMutability":"view"},{"type":"error","name":"InvalidProof","inputs":[]},{"type":"error","name":"Unauthorized","inputs":[]}],"bytecode":{"object":"0x608080604052346033575f805460ff19166001179055600280546001600160a01b0319163317905561034a90816100388239f35b5f80fdfe6080806040526004361015610012575f80fd5b5f3560e01c9081630ea1cbf6146102205750806324ac2d8f146101e057806369b555bc146101a357806378318cc514610164578063c442e20514610135578063c5807366146100e7578063ecf6b813146100a05763f851a44014610074575f80fd5b3461009c575f36600319011261009c576002546040516001600160a01b039091168152602090f35b5f80fd5b3461009c5736600319016101a0811261009c576101801361009c576101843567ffffffffffffffff811161009c576100df6100e591369060040161023e565b9061026c565b005b3461009c57602036600319011261009c5760043580151580910361009c576002546001600160a01b031633036101275760ff80195f54169116175f555f80f35b6282b42960e81b5f5260045ffd5b3461009c57602036600319011261009c576004355f526001602052602060ff60405f2054166040519015158152f35b3461009c573660031901610200811261009c576101e01361009c576101e43567ffffffffffffffff811161009c576100df6100e591369060040161023e565b3461009c57602036600319011261009c576002546001600160a01b03163303610127576004355f908152600160205260409020805460ff19169055005b3461009c57602036600319011261009c576002546001600160a01b03163303610127576004355f52600160205260405f20600160ff198254161790555f80f35b3461009c575f36600319011261009c5760209060ff5f541615158152f35b9181601f8401121561009c5782359167ffffffffffffffff831161009c576020838186019501011161009c57565b9060ff5f541661031057602081036102ed5767ffffffffffffffff81116102fc5760405190601f8101601f19908116603f0116820167ffffffffffffffff8111838210176102fc576040528082526020820192368282011161009c57815f926020928637830101525190205f52600160205260ff60405f205416156102ed57565b6309bde33960e01b5f5260045ffd5b634e487b7160e01b5f52604160045260245ffd5b505056fea26469706673582212205f487f94ccdf3e3ea39983002a89ba715f92885883c4e20e18d0d95014e7c99164736f6c634300081c0033","linkReferences":{}},"methodIdentifiers":{"acceptAll()":"0ea1cbf6","admin()":"f851a440","assertValidRequest((uint8,uint16,uint64,address,uint256,uint32,uint256,uint256,uint256,uint256,uint64,uint128),bytes)":"ecf6b813","assertValidWithdrawal((uint8,uint16,uint64,address,uint256,uint32,uint128,address,uint256,bool,bool,uint32,uint256,uint32,uint256),bytes)":"78318cc5","registerProofHash(bytes32)":"24ac2d8f","removeProofHash(bytes32)":"69b555bc","setAcceptAll(bool)":"c5807366","validProofHashes(bytes32)":"c442e205"},"id":12}