{"abi":[{"type":"constructor","inputs":[{"name":"_billingToken","type":"address","internalType":"address"},{"name":"_treasury","type":"address","internalType":"address"},{"name":"_noteTtl","type":"uint64","internalType":"uint64"},{"name":"_requestChargeCap","type":"uint128","internalType":"uint128"},{"name":"_policyChargeCap","type":"uint128","internalType":"uint128"},{"name":"_policyEnabled","type":"bool","internalType":"bool"},{"name":"_proofAdapter","type":"address","internalType":"address"},{"name":"_owner","type":"address","internalType":"address"}],"stateMutability":"nonpayable"},{"type":"function","name":"CHALLENGE_PERIOD","inputs":[],"outputs":[{"name":"","type":"uint64","internalType":"uint64"}],"stateMutability":"view"},{"type":"function","name":"MERKLE_DEPTH","inputs":[],"outputs":[{"name":"","type":"uint256","internalType":"uint256"}],"stateMutability":"view"},{"type":"function","name":"PROTOCOL_VERSION","inputs":[],"outputs":[{"name":"","type":"uint16","internalType":"uint16"}],"stateMutability":"view"},{"type":"function","name":"billingToken","inputs":[],"outputs":[{"name":"","type":"address","internalType":"contract IERC20"}],"stateMutability":"view"},{"type":"function","name":"challengeEscapeWithdrawal","inputs":[{"name":"noteId","type":"uint32","internalType":"uint32"},{"name":"inputs","type":"tuple","internalType":"struct Types.RequestPublicInputs","components":[{"name":"statementType","type":"uint8","internalType":"uint8"},{"name":"protocolVersion","type":"uint16","internalType":"uint16"},{"name":"chainId","type":"uint64","internalType":"uint64"},{"name":"contractAddress","type":"address","internalType":"address"},{"name":"activeRoot","type":"uint256","internalType":"uint256"},{"name":"stateSigEpoch","type":"uint32","internalType":"uint32"},{"name":"stateSigRoot","type":"uint256","internalType":"uint256"},{"name":"requestNullifier","type":"uint256","internalType":"uint256"},{"name":"anonCommitmentX","type":"uint256","internalType":"uint256"},{"name":"anonCommitmentY","type":"uint256","internalType":"uint256"},{"name":"expiryTs","type":"uint64","internalType":"uint64"},{"name":"solvencyBound","type":"uint128","internalType":"uint128"}]},{"name":"proofEnvelope","type":"bytes","internalType":"bytes"},{"name":"siblings","type":"uint256[32]","internalType":"uint256[32]"}],"outputs":[],"stateMutability":"nonpayable"},{"type":"function","name":"claimExpired","inputs":[{"name":"noteId","type":"uint32","internalType":"uint32"},{"name":"siblings","type":"uint256[32]","internalType":"uint256[32]"}],"outputs":[],"stateMutability":"nonpayable"},{"type":"function","name":"clearSigRootByEpoch","inputs":[{"name":"","type":"uint32","internalType":"uint32"}],"outputs":[{"name":"","type":"uint256","internalType":"uint256"}],"stateMutability":"view"},{"type":"function","name":"currentEpoch","inputs":[],"outputs":[{"name":"","type":"uint32","internalType":"uint32"}],"stateMutability":"view"},{"type":"function","name":"currentRoot","inputs":[],"outputs":[{"name":"","type":"uint256","internalType":"uint256"}],"stateMutability":"view"},{"type":"function","name":"deposit","inputs":[{"name":"commitment","type":"bytes32","internalType":"bytes32"},{"name":"amount","type":"uint128","internalType":"uint128"},{"name":"siblings","type":"uint256[32]","internalType":"uint256[32]"}],"outputs":[],"stateMutability":"nonpayable"},{"type":"function","name":"finalizeEscapeWithdrawal","inputs":[{"name":"noteId","type":"uint32","internalType":"uint32"}],"outputs":[],"stateMutability":"nonpayable"},{"type":"function","name":"initiateEscapeWithdrawal","inputs":[{"name":"inputs","type":"tuple","internalType":"struct Types.WithdrawalPublicInputs","components":[{"name":"statementType","type":"uint8","internalType":"uint8"},{"name":"protocolVersion","type":"uint16","internalType":"uint16"},{"name":"chainId","type":"uint64","internalType":"uint64"},{"name":"contractAddress","type":"address","internalType":"address"},{"name":"activeRoot","type":"uint256","internalType":"uint256"},{"name":"noteId","type":"uint32","internalType":"uint32"},{"name":"finalBalance","type":"uint128","internalType":"uint128"},{"name":"destination","type":"address","internalType":"address"},{"name":"withdrawalNullifier","type":"uint256","internalType":"uint256"},{"name":"isGenesis","type":"bool","internalType":"bool"},{"name":"hasClearance","type":"bool","internalType":"bool"},{"name":"stateSigEpoch","type":"uint32","internalType":"uint32"},{"name":"stateSigRoot","type":"uint256","internalType":"uint256"},{"name":"clearSigEpoch","type":"uint32","internalType":"uint32"},{"name":"clearSigRoot","type":"uint256","internalType":"uint256"}]},{"name":"proofEnvelope","type":"bytes","internalType":"bytes"},{"name":"siblings","type":"uint256[32]","internalType":"uint256[32]"}],"outputs":[],"stateMutability":"nonpayable"},{"type":"function","name":"mutualClose","inputs":[{"name":"inputs","type":"tuple","internalType":"struct Types.WithdrawalPublicInputs","components":[{"name":"statementType","type":"uint8","internalType":"uint8"},{"name":"protocolVersion","type":"uint16","internalType":"uint16"},{"name":"chainId","type":"uint64","internalType":"uint64"},{"name":"contractAddress","type":"address","internalType":"address"},{"name":"activeRoot","type":"uint256","internalType":"uint256"},{"name":"noteId","type":"uint32","internalType":"uint32"},{"name":"finalBalance","type":"uint128","internalType":"uint128"},{"name":"destination","type":"address","internalType":"address"},{"name":"withdrawalNullifier","type":"uint256","internalType":"uint256"},{"name":"isGenesis","type":"bool","internalType":"bool"},{"name":"hasClearance","type":"bool","internalType":"bool"},{"name":"stateSigEpoch","type":"uint32","internalType":"uint32"},{"name":"stateSigRoot","type":"uint256","internalType":"uint256"},{"name":"clearSigEpoch","type":"uint32","internalType":"uint32"},{"name":"clearSigRoot","type":"uint256","internalType":"uint256"}]},{"name":"proofEnvelope","type":"bytes","internalType":"bytes"},{"name":"siblings","type":"uint256[32]","internalType":"uint256[32]"}],"outputs":[],"stateMutability":"nonpayable"},{"type":"function","name":"nextNoteId","inputs":[],"outputs":[{"name":"","type":"uint32","internalType":"uint32"}],"stateMutability":"view"},{"type":"function","name":"noteTtl","inputs":[],"outputs":[{"name":"","type":"uint64","internalType":"uint64"}],"stateMutability":"view"},{"type":"function","name":"notes","inputs":[{"name":"","type":"uint32","internalType":"uint32"}],"outputs":[{"name":"commitment","type":"bytes32","internalType":"bytes32"},{"name":"depositAmount","type":"uint128","internalType":"uint128"},{"name":"expiryTs","type":"uint64","internalType":"uint64"},{"name":"status","type":"uint8","internalType":"enum Types.NoteStatus"}],"stateMutability":"view"},{"type":"function","name":"owner","inputs":[],"outputs":[{"name":"","type":"address","internalType":"address"}],"stateMutability":"view"},{"type":"function","name":"pause","inputs":[],"outputs":[],"stateMutability":"nonpayable"},{"type":"function","name":"paused","inputs":[],"outputs":[{"name":"","type":"bool","internalType":"bool"}],"stateMutability":"view"},{"type":"function","name":"pendingWithdrawals","inputs":[{"name":"","type":"uint32","internalType":"uint32"}],"outputs":[{"name":"exists","type":"bool","internalType":"bool"},{"name":"withdrawalNullifier","type":"uint256","internalType":"uint256"},{"name":"finalBalance","type":"uint128","internalType":"uint128"},{"name":"destination","type":"address","internalType":"address"},{"name":"challengeDeadline","type":"uint64","internalType":"uint64"}],"stateMutability":"view"},{"type":"function","name":"policyChargeCap","inputs":[],"outputs":[{"name":"","type":"uint128","internalType":"uint128"}],"stateMutability":"view"},{"type":"function","name":"policyEnabled","inputs":[],"outputs":[{"name":"","type":"bool","internalType":"bool"}],"stateMutability":"view"},{"type":"function","name":"proofAdapter","inputs":[],"outputs":[{"name":"","type":"address","internalType":"address"}],"stateMutability":"view"},{"type":"function","name":"renounceOwnership","inputs":[],"outputs":[],"stateMutability":"nonpayable"},{"type":"function","name":"requestChargeCap","inputs":[],"outputs":[{"name":"","type":"uint128","internalType":"uint128"}],"stateMutability":"view"},{"type":"function","name":"rotateServerRoots","inputs":[{"name":"epoch","type":"uint32","internalType":"uint32"},{"name":"stateRoot","type":"uint256","internalType":"uint256"},{"name":"clearRoot","type":"uint256","internalType":"uint256"}],"outputs":[],"stateMutability":"nonpayable"},{"type":"function","name":"setProofAdapter","inputs":[{"name":"newAdapter","type":"address","internalType":"address"}],"outputs":[],"stateMutability":"nonpayable"},{"type":"function","name":"setTreasury","inputs":[{"name":"newTreasury","type":"address","internalType":"address"}],"outputs":[],"stateMutability":"nonpayable"},{"type":"function","name":"stateSigRootByEpoch","inputs":[{"name":"","type":"uint32","internalType":"uint32"}],"outputs":[{"name":"","type":"uint256","internalType":"uint256"}],"stateMutability":"view"},{"type":"function","name":"transferOwnership","inputs":[{"name":"newOwner","type":"address","internalType":"address"}],"outputs":[],"stateMutability":"nonpayable"},{"type":"function","name":"treasury","inputs":[],"outputs":[{"name":"","type":"address","internalType":"address"}],"stateMutability":"view"},{"type":"function","name":"unpause","inputs":[],"outputs":[],"stateMutability":"nonpayable"},{"type":"function","name":"usedNullifiers","inputs":[{"name":"","type":"uint256","internalType":"uint256"}],"outputs":[{"name":"","type":"bool","internalType":"bool"}],"stateMutability":"view"},{"type":"event","name":"EscapeWithdrawalChallenged","inputs":[{"name":"noteId","type":"uint32","indexed":true,"internalType":"uint32"},{"name":"nullifier","type":"uint256","indexed":false,"internalType":"uint256"},{"name":"restoredRoot","type":"uint256","indexed":false,"internalType":"uint256"}],"anonymous":false},{"type":"event","name":"EscapeWithdrawalFinalized","inputs":[{"name":"noteId","type":"uint32","indexed":true,"internalType":"uint32"},{"name":"nullifier","type":"uint256","indexed":false,"internalType":"uint256"},{"name":"finalBalance","type":"uint128","indexed":false,"internalType":"uint128"},{"name":"destination","type":"address","indexed":false,"internalType":"address"}],"anonymous":false},{"type":"event","name":"EscapeWithdrawalInitiated","inputs":[{"name":"noteId","type":"uint32","indexed":true,"internalType":"uint32"},{"name":"nullifier","type":"uint256","indexed":false,"internalType":"uint256"},{"name":"finalBalance","type":"uint128","indexed":false,"internalType":"uint128"},{"name":"destination","type":"address","indexed":false,"internalType":"address"},{"name":"challengeDeadline","type":"uint64","indexed":false,"internalType":"uint64"},{"name":"newRoot","type":"uint256","indexed":false,"internalType":"uint256"}],"anonymous":false},{"type":"event","name":"ExpiredClaimed","inputs":[{"name":"noteId","type":"uint32","indexed":true,"internalType":"uint32"},{"name":"depositAmount","type":"uint128","indexed":false,"internalType":"uint128"},{"name":"newRoot","type":"uint256","indexed":false,"internalType":"uint256"}],"anonymous":false},{"type":"event","name":"MutualClose","inputs":[{"name":"noteId","type":"uint32","indexed":true,"internalType":"uint32"},{"name":"nullifier","type":"uint256","indexed":false,"internalType":"uint256"},{"name":"finalBalance","type":"uint128","indexed":false,"internalType":"uint128"},{"name":"destination","type":"address","indexed":false,"internalType":"address"}],"anonymous":false},{"type":"event","name":"NoteDeposited","inputs":[{"name":"noteId","type":"uint32","indexed":true,"internalType":"uint32"},{"name":"commitment","type":"bytes32","indexed":true,"internalType":"bytes32"},{"name":"amount","type":"uint128","indexed":false,"internalType":"uint128"},{"name":"expiryTs","type":"uint64","indexed":false,"internalType":"uint64"},{"name":"newRoot","type":"uint256","indexed":false,"internalType":"uint256"}],"anonymous":false},{"type":"event","name":"OwnershipTransferred","inputs":[{"name":"previousOwner","type":"address","indexed":true,"internalType":"address"},{"name":"newOwner","type":"address","indexed":true,"internalType":"address"}],"anonymous":false},{"type":"event","name":"ProofAdapterSet","inputs":[{"name":"newAdapter","type":"address","indexed":true,"internalType":"address"}],"anonymous":false},{"type":"event","name":"ServerRootsRotated","inputs":[{"name":"epoch","type":"uint32","indexed":true,"internalType":"uint32"},{"name":"stateRoot","type":"uint256","indexed":false,"internalType":"uint256"},{"name":"clearRoot","type":"uint256","indexed":false,"internalType":"uint256"}],"anonymous":false},{"type":"event","name":"TreasurySet","inputs":[{"name":"newTreasury","type":"address","indexed":true,"internalType":"address"}],"anonymous":false},{"type":"error","name":"ChallengeExpired","inputs":[]},{"type":"error","name":"ChallengeNotExpired","inputs":[]},{"type":"error","name":"EpochNotFound","inputs":[]},{"type":"error","name":"InvalidBalance","inputs":[]},{"type":"error","name":"InvalidCommitment","inputs":[]},{"type":"error","name":"InvalidFelt","inputs":[]},{"type":"error","name":"InvalidStatementType","inputs":[]},{"type":"error","name":"NotPendingWithdrawal","inputs":[]},{"type":"error","name":"NoteNotActive","inputs":[]},{"type":"error","name":"NoteNotExpired","inputs":[]},{"type":"error","name":"OwnableInvalidOwner","inputs":[{"name":"owner","type":"address","internalType":"address"}]},{"type":"error","name":"OwnableUnauthorizedAccount","inputs":[{"name":"account","type":"address","internalType":"address"}]},{"type":"error","name":"Paused","inputs":[]},{"type":"error","name":"ReentrancyGuardReentrantCall","inputs":[]},{"type":"error","name":"ReplayedNullifier","inputs":[]},{"type":"error","name":"SafeERC20FailedOperation","inputs":[{"name":"token","type":"address","internalType":"address"}]},{"type":"error","name":"StaleRoot","inputs":[]},{"type":"error","name":"ZeroAmount","inputs":[]}],"bytecode":{"object":"0x6101208060405234610239576101008161250f8038038091610021828561023d565b8339810103126102395761003481610274565b61004060208301610274565b60408301516001600160401b03811681036102395761006160608501610288565b9061006e60808601610288565b9260a08601519485151586036102395761009660e061008f60c08a01610274565b9801610274565b60017f9b779b17422d0df92223018b32b4d1fa46e071723d6817e2486d003becc55f00556001600160a01b03168015610226575f80546001600160a01b03198116831782556001600160a01b0316907f8be0079c531659141344cd1fd0a4f28419497f9722a3daafe3b4186f6b6457e09080a360018060a01b031660805260018060a01b031660018060a01b0319600254161760025560a05260c05260e0526101005260018060a01b031660018060a01b031960015416176001555f5f5b602081106101c75750600355604051612272908161029d82396080518181816102fd0152818161032e01528181610ad801528181610de2015281816113250152611c10015260a051818181610c98015261193a015260c051816103d9015260e051816112eb015261010051816114cd0152f35b907f08000000000000110000000000000000000000000000000000000000000000016001916040516020810191697a6b6170692e6e6f6465835280604083015260608201526060815261021b60808261023d565b519020069101610154565b631e4fbdf760e01b5f525f60045260245ffd5b5f80fd5b601f909101601f19168101906001600160401b0382119082101761026057604052565b634e487b7160e01b5f52604160045260245ffd5b51906001600160a01b038216820361023957565b51906001600160801b03821682036102395756fe6080806040526004361015610012575f80fd5b5f905f3560e01c9081630272cc6214611c7c5750806305bbfd8b1461199357806307eb7ac11461195e578063225af2e71461191a57806324a7b60f146115275780632e678504146114f25780633730fdab146114b55780633eac9466146113cc5780633f4ba83a146113a35780635c975abb1461137d57806361d027b314611354578063631b2f101461130f5780636a7a6277146112cb5780636d12862b14611263578063715018a61461120957806376671808146111e55780637a2043a3146111c15780638456cb59146111925780638da5cb5b1461116b5780639f18e4ed146110e3578063a2f9f1ce14611065578063aa3aa46014611049578063aad240611461101a578063c3a079ed14610ffc578063c588341c14610c1a578063d0e1bf46146109ca578063ee526bed14610514578063efc91e58146104eb578063f0f4426014610483578063f2fde38b146103fd578063f6e01367146103b9578063fdab463d1461039b5763ff8f558514610189575f80fd5b34610398576020366003190112610398576101a2611d0c565b6101aa611fa1565b60ff60025460a01c166103895763ffffffff168082526005602052604082208183526006602052600160408420910180549060ff8260c01c166004811015610375576002036103665760038301546001600160401b038160a01c164210610357576001600160801b039283859361025d6102d39483600260017f163f2e46c4004f0ed9682e2db8c84efac31310720266b17ea9904ba348c265049b01549801541697889160018060a01b03169516611f6d565b815460ff60c01b1916600360c01b179091558789526006602052604089205f80825560018201819055600282018190556003919091015585610327575b16806102ea575b50604080519384526001600160801b0390941660208401526001600160a01b0316928201929092529081906060820190565b0390a260015f51602061221d5f395f51905f525580f35b60025461032191906001600160a01b03167f000000000000000000000000000000000000000000000000000000000000000061207c565b5f6102a1565b61035286847f000000000000000000000000000000000000000000000000000000000000000061207c565b61029a565b630a8f83ff60e11b8652600486fd5b631df2a9f960e11b8552600485fd5b634e487b7160e01b86526021600452602486fd5b6313d0ff5960e31b8252600482fd5b80fd5b50346103985780600319360112610398576020600354604051908152f35b503461039857806003193601126103985760206040516001600160801b037f0000000000000000000000000000000000000000000000000000000000000000168152f35b503461039857602036600319011261039857610417611d30565b61041f6120fd565b6001600160a01b0316801561046f5781546001600160a01b03198116821783556001600160a01b03167f8be0079c531659141344cd1fd0a4f28419497f9722a3daafe3b4186f6b6457e08380a380f35b631e4fbdf760e01b82526004829052602482fd5b50346103985760203660031901126103985761049d611d30565b6104a56120fd565b600280546001600160a01b0319166001600160a01b039290921691821790557f3c864541ef71378c6229510ed90f376565ee42d9c5e0904a984a9e863e6db44f8280a280f35b50346103985780600319360112610398576001546040516001600160a01b039091168152602090f35b5034610398576105c03660031901126103985761052f611d0c565b6101803660231901126109c6576101a4356001600160401b03811161097d5761055c903690600401611c94565b919091366105c41161097957610570611fa1565b60ff60025460a01c166109b75763ffffffff8216928385526005602052604085209084865260066020526040862091600181019283549260ff8460c01c1660048110156109a357600203610994576001600160401b03600383015460a01c16421015610985576001546001600160a01b031695863b156109815760405163ecf6b81360e01b81526024359160ff8316918c9183850361097d5783600483015260443561ffff81168091036109795760248301526064356001600160401b0381168091036109795760448301526084356001600160a01b0381169081900361097957606483015260a435608483015260c43563ffffffff81168091036109795760a483015260e435958660c4840152610104359b8c60e48501526101243561010485015261014435610124850152610164356001600160401b0381168091036109755761014485015261018435916001600160801b03831680930361097557846106f3819492889683946101648501526101a06101848501526101a4840191611d9c565b03915afa801561096a57610951575b50505f190190506109425763ffffffff61071a611f21565b166108f9575b50600101938454036108ea579061075091546001600160801b036001600160401b038360801c169216908661200f565b6003548685885b602081106108895750500361087a5792855b602081106108055750506003838155815460ff60c01b1916600160c01b179091559054838552600660205260408086205f80825560018201819055600282018190559301929092557f5cc5343b84cd949969f3ccc4ea44315630280857b9e591cc1ab48dbb9e6a358192818652600a60205282862060ff19815416905582519182526020820152a260015f51602061221d5f395f51905f525580f35b90936001851661085257602082101561083e57637fffffff6108326001928460051b6101c40135906121ed565b955b821c169101610769565b634e487b7160e01b5f52603260045260245ffd5b602082101561083e57637fffffff6108746001928460051b6101c401356121ed565b95610834565b63303a23ef60e11b8652600486fd5b9091600183166108c257602082101561083e57637fffffff6108b66001928460051b6101c40135906121ed565b935b821c169101610757565b602082101561083e57637fffffff6108e46001928460051b6101c401356121ed565b936108b8565b63947e59c560e01b8752600487fd5b63ffffffff610906611f21565b1689526008602052604089205480156109335703610924575f610720565b6386d1007760e01b8852600488fd5b6386d1007760e01b8a5260048afd5b63128375ab60e11b8952600489fd5b8161095b91611d5a565b610966578a5f610702565b8a80fd5b6040513d84823e3d90fd5b8580fd5b8380fd5b8280fd5b8980fd5b63f06506c560e01b8952600489fd5b631df2a9f960e11b8952600489fd5b634e487b7160e01b8a52602160045260248afd5b6313d0ff5960e31b8452600484fd5b5080fd5b503461039857610420366003190112610398576109e5611d0c565b36610424116109c6576109f6611fa1565b60ff60025460a01c166103895763ffffffff811690818352600560205260408320906001820180549260ff8460c01c166004811015610c0657600103610bf7576001600160401b038460801c1690814210610be857906001600160801b03610a639254951680958561200f565b6003549083875b60208110610b8957505003610b7a578491855b60208110610b1b5750506003829055805460ff60c01b1916600360c01b1790556002547f5534ce4a9fb7fe545375064cc186660ac10ba2152cb1592b29b244d2fe169ae4926040929091610afc9083906001600160a01b03167f000000000000000000000000000000000000000000000000000000000000000061207c565b82519182526020820152a260015f51602061221d5f395f51905f525580f35b909260018416610b5357602082101561083e57637fffffff610b476001928460051b60240135906121ed565b945b821c169101610a7d565b602082101561083e57637fffffff610b746001928460051b602401356121ed565b94610b49565b63303a23ef60e11b8552600485fd5b909160018316610bc157602082101561083e57637fffffff610bb56001928460051b60240135906121ed565b935b821c169101610a6a565b602082101561083e57637fffffff610be26001928460051b602401356121ed565b93610bb7565b63081b5d4760e21b8752600487fd5b6361a83aab60e01b8652600486fd5b634e487b7160e01b87526021600452602487fd5b503461039857610440366003190112610398576004356024356001600160801b03811680820361097957366104441161097957610c55611fa1565b60ff60025460a01c166109b7578015610fed578215610fde57600167080000000000001160c01b01831015610fcf5763ffffffff60045416916001600160401b037f0000000000000000000000000000000000000000000000000000000000000000166001600160401b03421601906001600160401b038211610fbb5781610cde91868661200f565b6003548685885b60208110610f5c5750500361087a579083865b60208110610efd57505081600355604051608081018181106001600160401b03821117610ee95760405285815260208101908482526001600160401b03604082019316928381526001600160801b0380600160608501948186528a8d52600560205260408d209051815501945116166001600160801b0319845416178355518254906001600160401b0360801b9060801b16906001600160401b0360801b1916178255516004811015610ed557815460ff60c01b191660c09190911b60ff60c01b161790556001840163ffffffff8111610ec15763ffffffff1663ffffffff1960045416176004557f000000000000000000000000000000000000000000000000000000000000000092604051936323b872dd60e01b885233600452306024528160445260208860648180855af16001895114811615610ea2575b856040528860605215610e8757508352602083015260408201527f7c83dba8534bea9e30d6444f9ca6462dc906897f9938d220dbbe4358c1f7a06390606090a360015f51602061221d5f395f51905f525580f35b635274afe760e01b88526001600160a01b0316600452602487fd5b6001811516610eb857813b15153d151616610e33565b853d8a823e3d90fd5b634e487b7160e01b87526011600452602487fd5b634e487b7160e01b88526021600452602488fd5b634e487b7160e01b88526041600452602488fd5b909260018416610f3557602082101561083e57637fffffff610f296001928460051b60440135906121ed565b945b821c169101610cf8565b602082101561083e57637fffffff610f566001928460051b604401356121ed565b94610f2b565b909160018316610f9457602082101561083e57637fffffff610f886001928460051b60440135906121ed565b935b821c169101610ce5565b602082101561083e57637fffffff610fb56001928460051b604401356121ed565b93610f8a565b634e487b7160e01b86526011600452602486fd5b630aae263360e21b8452600484fd5b636033c4fd60e11b8452600484fd5b631f2a200560e01b8452600484fd5b50346103985780600319360112610398576020604051620151808152f35b50346103985760203660031901126103985760ff60406020926004358152600a84522054166040519015158152f35b5034610398578060031936011261039857602060405160018152f35b503461039857602036600319011261039857604060a09163ffffffff611089611d0c565b1681526006602052206001600160401b0360ff8254169160018101549060036001600160801b0360028301541691015491604051941515855260208501526040840152600180851b0381166060840152831c166080820152f35b50346103985760203660031901126103985763ffffffff611102611d0c565b168152600560205260408120600181549101546001600160401b0360ff8260c01c16916040519384526001600160801b038116602085015260801c166040830152600481101561115757608092506060820152f35b634e487b7160e01b83526021600452602483fd5b5034610398578060031936011261039857546040516001600160a01b039091168152602090f35b50346103985780600319360112610398576111ab6120fd565b6002805460ff60a01b1916600160a01b17905580f35b5034610398578060031936011261039857602063ffffffff60045416604051908152f35b5034610398578060031936011261039857602063ffffffff60075416604051908152f35b50346103985780600319360112610398576112226120fd565b80546001600160a01b03198116825581906001600160a01b03167f8be0079c531659141344cd1fd0a4f28419497f9722a3daafe3b4186f6b6457e08280a380f35b50346103985760203660031901126103985761127d611d30565b6112856120fd565b600180546001600160a01b0319166001600160a01b039290921691821790557f37af471ef01d37a0d367bedb6d3affccb40cc1559a1d44039c3dfa55efbdceda8280a280f35b503461039857806003193601126103985760206040516001600160801b037f0000000000000000000000000000000000000000000000000000000000000000168152f35b50346103985780600319360112610398576040517f00000000000000000000000000000000000000000000000000000000000000006001600160a01b03168152602090f35b50346103985780600319360112610398576002546040516001600160a01b039091168152602090f35b5034610398578060031936011261039857602060ff60025460a01c166040519015158152f35b50346103985780600319360112610398576113bc6120fd565b6002805460ff60a01b1916905580f35b5034610398576060366003190112610398576113e6611d0c565b6024356044356113f46120fd565b60075463ffffffff80821694169380851115806114ac575b61149d571580611495575b61148657838552600860205260408520546114865791604091847f22564a553a805243d2574d9c5d0de9268ae52ec2ce26c57c1cbc7641198284e29463ffffffff191617600755848652600860205281838720558486526009602052808387205582519182526020820152a280f35b6386d1007760e01b8552600485fd5b508315611417565b6386d1007760e01b8652600486fd5b5080151561140c565b503461039857806003193601126103985760206040517f000000000000000000000000000000000000000000000000000000000000000015158152f35b503461039857602036600319011261039857604060209163ffffffff611516611d0c565b168152600983522054604051908152f35b50346103985761153636611cc1565b9291611540611fa1565b60ff60025460a01c1661190b5760015485926001600160a01b039091169190823b15610979576040516378318cc560e01b815292849284928391829161158a918a60048501611dbc565b03915afa801561096a576118f6575b5050600260ff6115a883611f06565b16036118e7576115bb6101408201611f14565b6118e7576003546080820135036118d8576115d860a08201611f34565b9063ffffffff82169283855260056020526040852092600184019182549160ff8360c01c1660048110156118c4576001036118b55761163661161d6101208701611f14565b61162a6101608801611f34565b61018088013591611fd9565b60c08501926001600160801b038061164d86611f45565b92169116116118a65761010085013595868952600a60205260ff60408a20541661189757868952600a60205260408920805460ff191660011790555484546116ae91608082901c6001600160401b0316916001600160801b0316908461200f565b6116bc836003549284612197565b0361188857906116cb91612134565b92620151806001600160401b03421601926001600160401b038411611874576003859055805460ff60c01b1916600160c11b17905560e061170b83611f45565b91019261171784611f59565b916040519060a082018281106001600160401b038211176118605760a097958a958a989560036001600160801b03968f611828977fb0d1eb7131bcf3c6dd53517f6fa90bf7cc94178eb0eb5e0a1f204abe3b839cdf9f60408b936118229a825260018652602086019283528482870194168452606086019860a0600180911b031689526001600160401b036080870198169e8f895281526006602052209351151560ff80198654169116178455516001840155511688600283019116891982541617905501916001808d1b039051166bffffffffffffffffffffffff8c1b835416178255518154906001600160401b038c1b908c1b16906001600160401b038c1b1916179055611f45565b92611f59565b91604051958652166020850152600180861b0316604084015260608301526080820152a260015f51602061221d5f395f51905f525580f35b634e487b7160e01b8b52604160045260248bfd5b634e487b7160e01b88526011600452602488fd5b63303a23ef60e11b8852600488fd5b63947e59c560e01b8952600489fd5b63c52e3eff60e01b8852600488fd5b6361a83aab60e01b8852600488fd5b634e487b7160e01b89526021600452602489fd5b63303a23ef60e11b8352600483fd5b63128375ab60e11b8352600483fd5b8161190091611d5a565b61097d57825f611599565b6313d0ff5960e31b8552600485fd5b503461039857806003193601126103985760206040516001600160401b037f0000000000000000000000000000000000000000000000000000000000000000168152f35b503461039857602036600319011261039857604060209163ffffffff611982611d0c565b168152600883522054604051908152f35b5034611c69576119a236611cc1565b916119ab611fa1565b60ff60025460a01c16611c6d576001546001600160a01b031691823b15611c69576040516378318cc560e01b8152925f928492839182916119f0918a60048501611dbc565b03915afa8015611c5e57611c49575b50600260ff611a0d84611f06565b16036118e757611a206101408301611f14565b156118e7576003546080830135036118d857611a3e60a08301611f34565b9063ffffffff82169283855260056020526040852092600184019283549160ff8360c01c1660048110156118c4576001036118b557611a9c611a836101208601611f14565b611a906101608701611f34565b61018087013591611fd9565b63ffffffff611aae6101a08601611f34565b168852600960205260408820548015611c3a576101c0850135036109245760c08401926001600160801b0380611ae386611f45565b92169116116118a65761010084013595868952600a60205260ff60408a20541661189757868952600a60205260408920805460ff19166001179055548554611b4491608082901c6001600160401b0316916001600160801b0316908461200f565b611b52836003549284612197565b0361188857611bc77f1f43fa4711ca18e1d26398f26bf598bd3a62992cdd0e84f055f2bb506e9d703196946001600160801b03611bbf611bb66102d397611b9d60e09b988598612134565b600355875460ff60c01b1916600360c01b178855611f45565b98899301611f59565b945416611f6d565b81861680611c09575b5016806102ea5750604080519384526001600160801b0390941660208401526001600160a01b0316928201929092529081906060820190565b611c3490847f000000000000000000000000000000000000000000000000000000000000000061207c565b5f611bd0565b6386d1007760e01b8952600489fd5b611c569193505f90611d5a565b5f915f6119ff565b6040513d5f823e3d90fd5b5f80fd5b6313d0ff5960e31b5f5260045ffd5b34611c69575f366003190112611c6957806020809252f35b9181601f84011215611c69578235916001600160401b038311611c695760208381860195010111611c6957565b9060031982016106008112611c69576101e013611c69576004916101e4356001600160401b038111611c695781611cfa91600401611c94565b9290929161060411611c695761020490565b6004359063ffffffff82168203611c6957565b359063ffffffff82168203611c6957565b600435906001600160a01b0382168203611c6957565b35906001600160a01b0382168203611c6957565b90601f801991011681019081106001600160401b03821117611d7b57604052565b634e487b7160e01b5f52604160045260245ffd5b35908115158203611c6957565b908060209392818452848401375f828201840152601f01601f1916010190565b9290803560ff8116809103611c69578452602081013561ffff8116809103611c6957602085015260408101356001600160401b038116809103611c695760408501526001600160a01b03611e1260608301611d46565b1660608501526080810135608085015263ffffffff611e3360a08301611d1f565b1660a085015260c0810135936001600160801b038516809503611c69576101c061020092611f039660c084015260018060a01b03611e7360e08301611d46565b1660e0840152610100810135610100840152611e926101208201611d8f565b1515610120840152611ea76101408201611d8f565b151561014084015263ffffffff611ec16101608301611d1f565b1661016084015261018081013561018084015263ffffffff611ee66101a08301611d1f565b166101a084015201356101c0820152816101e08201520191611d9c565b90565b3560ff81168103611c695790565b358015158103611c695790565b60c43563ffffffff81168103611c695790565b3563ffffffff81168103611c695790565b356001600160801b0381168103611c695790565b356001600160a01b0381168103611c695790565b906001600160801b03809116911603906001600160801b038211611f8d57565b634e487b7160e01b5f52601160045260245ffd5b60025f51602061221d5f395f51905f525414611fca5760025f51602061221d5f395f51905f5255565b633ee5aeb560e01b5f5260045ffd5b61200b5763ffffffff165f52600860205260405f20548015611ffc5703611ffc57565b6386d1007760e01b5f5260045ffd5b5050565b91926001600160801b036001600160401b0392946040519563ffffffff6020880196697a6b6170692e6c656166885216604088015260608701521660808501521660a083015260a0825261206460c083611d5a565b90519020600167080000000000001160c01b01900690565b916040519163a9059cbb60e01b5f5260018060a01b031660045260245260205f60448180865af19060015f51148216156120dc575b604052156120bc5750565b635274afe760e01b5f9081526001600160a01b0391909116600452602490fd5b9060018115166120f457823b15153d151616906120b1565b503d5f823e3d90fd5b5f546001600160a01b0316330361211057565b63118cdaa760e01b5f523360045260245ffd5b90602081101561083e5760051b0190565b5f9291835b6020811061214657505050565b909193637fffffff600191828716155f1461217d57612170906121698587612123565b35906121ed565b955b821c16929101612139565b6121919061218b8587612123565b356121ed565b95612172565b9092915f5b602081106121a957505050565b909193637fffffff600191828716155f146121d9576121cc906121698587612123565b955b821c1692910161219c565b6121e79061218b8587612123565b956121ce565b604051916020830191697a6b6170692e6e6f646583526040840152606083015260608252612064608083611d5a56fe9b779b17422d0df92223018b32b4d1fa46e071723d6817e2486d003becc55f00a2646970667358221220c4cd5f1a21b2caed9c992355f527e8891681a47e6d3bdaf186ebabd47018fb4864736f6c634300081c0033","linkReferences":{}},"methodIdentifiers":{"CHALLENGE_PERIOD()":"c3a079ed","MERKLE_DEPTH()":"0272cc62","PROTOCOL_VERSION()":"aa3aa460","billingToken()":"631b2f10","challengeEscapeWithdrawal(uint32,(uint8,uint16,uint64,address,uint256,uint32,uint256,uint256,uint256,uint256,uint64,uint128),bytes,uint256[32])":"ee526bed","claimExpired(uint32,uint256[32])":"d0e1bf46","clearSigRootByEpoch(uint32)":"2e678504","currentEpoch()":"76671808","currentRoot()":"fdab463d","deposit(bytes32,uint128,uint256[32])":"c588341c","finalizeEscapeWithdrawal(uint32)":"ff8f5585","initiateEscapeWithdrawal((uint8,uint16,uint64,address,uint256,uint32,uint128,address,uint256,bool,bool,uint32,uint256,uint32,uint256),bytes,uint256[32])":"24a7b60f","mutualClose((uint8,uint16,uint64,address,uint256,uint32,uint128,address,uint256,bool,bool,uint32,uint256,uint32,uint256),bytes,uint256[32])":"05bbfd8b","nextNoteId()":"7a2043a3","noteTtl()":"225af2e7","notes(uint32)":"9f18e4ed","owner()":"8da5cb5b","pause()":"8456cb59","paused()":"5c975abb","pendingWithdrawals(uint32)":"a2f9f1ce","policyChargeCap()":"6a7a6277","policyEnabled()":"3730fdab","proofAdapter()":"efc91e58","renounceOwnership()":"715018a6","requestChargeCap()":"f6e01367","rotateServerRoots(uint32,uint256,uint256)":"3eac9466","setProofAdapter(address)":"6d12862b","setTreasury(address)":"f0f44260","stateSigRootByEpoch(uint32)":"07eb7ac1","transferOwnership(address)":"f2fde38b","treasury()":"61d027b3","unpause()":"3f4ba83a","usedNullifiers(uint256)":"aad24061"},"id":10}